{"abi":[{"type":"constructor","inputs":[{"name":"usdtTokenAddress","type":"address","internalType":"address"},{"name":"_deviceContractAddress","type":"address","internalType":"address"},{"name":"_farmContractAddress","type":"address","internalType":"address"},{"name":"_insuranceContractAddress","type":"address","internalType":"address"},{"name":"owner","type":"address","internalType":"address"}],"stateMutability":"nonpayable"},{"type":"function","name":"FKTToken","inputs":[],"outputs":[{"name":"","type":"address","internalType":"contract IFarmKeeperToken"}],"stateMutability":"view"},{"type":"function","name":"addFarm","inputs":[{"name":"_area","type":"tuple","internalType":"struct FarmKeeperStorage.Location","components":[{"name":"latitude","type":"uint256","internalType":"uint256"},{"name":"longitude","type":"uint256","internalType":"uint256"}]}],"outputs":[],"stateMutability":"nonpayable"},{"type":"function","name":"addInsurance","inputs":[{"name":"farmId","type":"uint256","internalType":"uint256"},{"name":"insuredAmount","type":"uint256","internalType":"uint256"},{"name":"insuredType","type":"uint8","internalType":"enum FarmKeeperStorage.InsuranceType"},{"name":"threshold","type":"uint256","internalType":"uint256"},{"name":"dayTime","type":"uint256","internalType":"uint256"}],"outputs":[{"name":"","type":"string","internalType":"string"}],"stateMutability":"nonpayable"},{"type":"function","name":"assignDeviceToUser","inputs":[{"name":"_deviceId","type":"uint256","internalType":"uint256"},{"name":"_user","type":"address","internalType":"address"}],"outputs":[{"name":"","type":"bool","internalType":"bool"}],"stateMutability":"nonpayable"},{"type":"function","name":"cancelInsurance","inputs":[{"name":"_insuranceId","type":"string","internalType":"string"}],"outputs":[],"stateMutability":"nonpayable"},{"type":"function","name":"contractName","inputs":[],"outputs":[{"name":"","type":"string","internalType":"string"}],"stateMutability":"pure"},{"type":"function","name":"createMintDeviceOrder","inputs":[{"name":"deviceName","type":"string","internalType":"string"},{"name":"phoneNumber","type":"string","internalType":"string"},{"name":"sendAddress","type":"string","internalType":"string"}],"outputs":[{"name":"","type":"bool","internalType":"bool"}],"stateMutability":"nonpayable"},{"type":"function","name":"deleteUserFarm","inputs":[{"name":"_farmId","type":"uint256","internalType":"uint256"}],"outputs":[],"stateMutability":"nonpayable"},{"type":"function","name":"deviceContract","inputs":[],"outputs":[{"name":"","type":"address","internalType":"contract FarmKeeperDevice"}],"stateMutability":"view"},{"type":"function","name":"devices","inputs":[{"name":"id","type":"uint256","internalType":"uint256"}],"outputs":[{"name":"","type":"uint256","internalType":"uint256"},{"name":"","type":"string","internalType":"string"},{"name":"","type":"tuple","internalType":"struct FarmKeeperStorage.Location","components":[{"name":"latitude","type":"uint256","internalType":"uint256"},{"name":"longitude","type":"uint256","internalType":"uint256"}]},{"name":"","type":"address","internalType":"address"},{"name":"","type":"string","internalType":"string"}],"stateMutability":"view"},{"type":"function","name":"farmContract","inputs":[],"outputs":[{"name":"","type":"address","internalType":"contract FarmKeeperFarm"}],"stateMutability":"view"},{"type":"function","name":"getAuthorInformation","inputs":[],"outputs":[{"name":"","type":"string","internalType":"string"},{"name":"","type":"string","internalType":"string"},{"name":"","type":"string","internalType":"string"}],"stateMutability":"pure"},{"type":"function","name":"getDeviceById","inputs":[{"name":"_deviceId","type":"uint256","internalType":"uint256"}],"outputs":[{"name":"","type":"tuple","internalType":"struct FarmKeeperStorage.Device","components":[{"name":"id","type":"uint256","internalType":"uint256"},{"name":"name","type":"string","internalType":"string"},{"name":"location","type":"tuple","internalType":"struct FarmKeeperStorage.Location","components":[{"name":"latitude","type":"uint256","internalType":"uint256"},{"name":"longitude","type":"uint256","internalType":"uint256"}]},{"name":"data","type":"string[]","internalType":"string[]"},{"name":"owner","type":"address","internalType":"address"},{"name":"publicKey","type":"string","internalType":"string"}]}],"stateMutability":"view"},{"type":"function","name":"getFarmInsurances","inputs":[{"name":"_farmId","type":"uint256","internalType":"uint256"}],"outputs":[{"name":"","type":"tuple[]","internalType":"struct FarmKeeperStorage.Insurance[]","components":[{"name":"id","type":"string","internalType":"string"},{"name":"farmId","type":"uint256","internalType":"uint256"},{"name":"insuredAmount","type":"uint256","internalType":"uint256"},{"name":"insuredType","type":"uint8","internalType":"enum FarmKeeperStorage.InsuranceType"},{"name":"insurer","type":"address","internalType":"address"},{"name":"threshold","type":"uint256","internalType":"uint256"},{"name":"startTimeStamp","type":"uint256","internalType":"uint256"},{"name":"endTimeStamp","type":"uint256","internalType":"uint256"},{"name":"isActive","type":"bool","internalType":"bool"},{"name":"status","type":"uint8","internalType":"enum FarmKeeperStorage.PolicyStatus"}]}],"stateMutability":"view"},{"type":"function","name":"getInsuranceById","inputs":[{"name":"_insuranceId","type":"string","internalType":"string"}],"outputs":[{"name":"","type":"tuple","internalType":"struct FarmKeeperStorage.Insurance","components":[{"name":"id","type":"string","internalType":"string"},{"name":"farmId","type":"uint256","internalType":"uint256"},{"name":"insuredAmount","type":"uint256","internalType":"uint256"},{"name":"insuredType","type":"uint8","internalType":"enum FarmKeeperStorage.InsuranceType"},{"name":"insurer","type":"address","internalType":"address"},{"name":"threshold","type":"uint256","internalType":"uint256"},{"name":"startTimeStamp","type":"uint256","internalType":"uint256"},{"name":"endTimeStamp","type":"uint256","internalType":"uint256"},{"name":"isActive","type":"bool","internalType":"bool"},{"name":"status","type":"uint8","internalType":"enum FarmKeeperStorage.PolicyStatus"}]}],"stateMutability":"view"},{"type":"function","name":"getMintDeviceOrder","inputs":[{"name":"id","type":"uint256","internalType":"uint256"}],"outputs":[{"name":"","type":"tuple","internalType":"struct FarmKeeperStorage.MintDeviceOrder","components":[{"name":"id","type":"uint256","internalType":"uint256"},{"name":"name","type":"string","internalType":"string"},{"name":"owner","type":"address","internalType":"address"},{"name":"phoneNumber","type":"string","internalType":"string"},{"name":"sendAddress","type":"string","internalType":"string"},{"name":"isProcessed","type":"bool","internalType":"bool"},{"name":"isSend","type":"bool","internalType":"bool"}]}],"stateMutability":"view"},{"type":"function","name":"getUserDevices","inputs":[],"outputs":[{"name":"","type":"tuple[]","internalType":"struct FarmKeeperStorage.Device[]","components":[{"name":"id","type":"uint256","internalType":"uint256"},{"name":"name","type":"string","internalType":"string"},{"name":"location","type":"tuple","internalType":"struct FarmKeeperStorage.Location","components":[{"name":"latitude","type":"uint256","internalType":"uint256"},{"name":"longitude","type":"uint256","internalType":"uint256"}]},{"name":"data","type":"string[]","internalType":"string[]"},{"name":"owner","type":"address","internalType":"address"},{"name":"publicKey","type":"string","internalType":"string"}]}],"stateMutability":"view"},{"type":"function","name":"getUserDevicesByAddress","inputs":[{"name":"_userAddress","type":"address","internalType":"address"}],"outputs":[{"name":"","type":"tuple[]","internalType":"struct FarmKeeperStorage.Device[]","components":[{"name":"id","type":"uint256","internalType":"uint256"},{"name":"name","type":"string","internalType":"string"},{"name":"location","type":"tuple","internalType":"struct FarmKeeperStorage.Location","components":[{"name":"latitude","type":"uint256","internalType":"uint256"},{"name":"longitude","type":"uint256","internalType":"uint256"}]},{"name":"data","type":"string[]","internalType":"string[]"},{"name":"owner","type":"address","internalType":"address"},{"name":"publicKey","type":"string","internalType":"string"}]}],"stateMutability":"view"},{"type":"function","name":"getUserFarmById","inputs":[{"name":"_farmId","type":"uint256","internalType":"uint256"}],"outputs":[{"name":"","type":"tuple","internalType":"struct FarmKeeperStorage.Farm","components":[{"name":"id","type":"uint256","internalType":"uint256"},{"name":"owner","type":"address","internalType":"address"},{"name":"area","type":"tuple","internalType":"struct FarmKeeperStorage.Location","components":[{"name":"latitude","type":"uint256","internalType":"uint256"},{"name":"longitude","type":"uint256","internalType":"uint256"}]},{"name":"insured","type":"bool","internalType":"bool"},{"name":"insuranceIds","type":"string[]","internalType":"string[]"},{"name":"deleted","type":"bool","internalType":"bool"}]}],"stateMutability":"view"},{"type":"function","name":"getUserFarms","inputs":[],"outputs":[{"name":"","type":"tuple[]","internalType":"struct FarmKeeperStorage.Farm[]","components":[{"name":"id","type":"uint256","internalType":"uint256"},{"name":"owner","type":"address","internalType":"address"},{"name":"area","type":"tuple","internalType":"struct FarmKeeperStorage.Location","components":[{"name":"latitude","type":"uint256","internalType":"uint256"},{"name":"longitude","type":"uint256","internalType":"uint256"}]},{"name":"insured","type":"bool","internalType":"bool"},{"name":"insuranceIds","type":"string[]","internalType":"string[]"},{"name":"deleted","type":"bool","internalType":"bool"}]}],"stateMutability":"view"},{"type":"function","name":"insuranceContract","inputs":[],"outputs":[{"name":"","type":"address","internalType":"contract FarmKeeperInsurance"}],"stateMutability":"view"},{"type":"function","name":"mintDevice","inputs":[{"name":"mintDeviceOrderId","type":"uint256","internalType":"uint256"},{"name":"publicKey","type":"string","internalType":"string"}],"outputs":[{"name":"","type":"bool","internalType":"bool"}],"stateMutability":"nonpayable"},{"type":"function","name":"mintDeviceOrders","inputs":[{"name":"id","type":"uint256","internalType":"uint256"}],"outputs":[{"name":"","type":"uint256","internalType":"uint256"},{"name":"","type":"string","internalType":"string"},{"name":"","type":"address","internalType":"address"},{"name":"","type":"string","internalType":"string"},{"name":"","type":"string","internalType":"string"},{"name":"","type":"bool","internalType":"bool"},{"name":"","type":"bool","internalType":"bool"}],"stateMutability":"view"},{"type":"function","name":"mintToken","inputs":[{"name":"to","type":"address","internalType":"address"},{"name":"amount","type":"uint256","internalType":"uint256"}],"outputs":[],"stateMutability":"nonpayable"},{"type":"function","name":"owner","inputs":[],"outputs":[{"name":"","type":"address","internalType":"address"}],"stateMutability":"view"},{"type":"function","name":"payOutInsurance","inputs":[{"name":"_insuranceId","type":"string","internalType":"string"}],"outputs":[],"stateMutability":"nonpayable"},{"type":"function","name":"renounceOwnership","inputs":[],"outputs":[],"stateMutability":"nonpayable"},{"type":"function","name":"transferOwnership","inputs":[{"name":"newOwner","type":"address","internalType":"address"}],"outputs":[],"stateMutability":"nonpayable"},{"type":"event","name":"OwnershipTransferred","inputs":[{"name":"previousOwner","type":"address","indexed":true,"internalType":"address"},{"name":"newOwner","type":"address","indexed":true,"internalType":"address"}],"anonymous":false},{"type":"error","name":"OwnableInvalidOwner","inputs":[{"name":"owner","type":"address","internalType":"address"}]},{"type":"error","name":"OwnableUnauthorizedAccount","inputs":[{"name":"account","type":"address","internalType":"address"}]}],"bytecode":{"object":"0x60c060405234801561000f575f5ffd5b50604051613eec380380613eec83398181016040528101906100319190610303565b805f73ffffffffffffffffffffffffffffffffffffffff168173ffffffffffffffffffffffffffffffffffffffff16036100a2575f6040517f1e4fbdf70000000000000000000000000000000000000000000000000000000081526004016100999190610389565b60405180910390fd5b6100b1816101e460201b60201c565b508073ffffffffffffffffffffffffffffffffffffffff1660808173ffffffffffffffffffffffffffffffffffffffff16815250508473ffffffffffffffffffffffffffffffffffffffff1660a08173ffffffffffffffffffffffffffffffffffffffff16815250508360015f6101000a81548173ffffffffffffffffffffffffffffffffffffffff021916908373ffffffffffffffffffffffffffffffffffffffff1602179055508260025f6101000a81548173ffffffffffffffffffffffffffffffffffffffff021916908373ffffffffffffffffffffffffffffffffffffffff1602179055508160035f6101000a81548173ffffffffffffffffffffffffffffffffffffffff021916908373ffffffffffffffffffffffffffffffffffffffff16021790555050505050506103a2565b5f5f5f9054906101000a900473ffffffffffffffffffffffffffffffffffffffff169050815f5f6101000a81548173ffffffffffffffffffffffffffffffffffffffff021916908373ffffffffffffffffffffffffffffffffffffffff1602179055508173ffffffffffffffffffffffffffffffffffffffff168173ffffffffffffffffffffffffffffffffffffffff167f8be0079c531659141344cd1fd0a4f28419497f9722a3daafe3b4186f6b6457e060405160405180910390a35050565b5f5ffd5b5f73ffffffffffffffffffffffffffffffffffffffff82169050919050565b5f6102d2826102a9565b9050919050565b6102e2816102c8565b81146102ec575f5ffd5b50565b5f815190506102fd816102d9565b92915050565b5f5f5f5f5f60a0868803121561031c5761031b6102a5565b5b5f610329888289016102ef565b955050602061033a888289016102ef565b945050604061034b888289016102ef565b935050606061035c888289016102ef565b925050608061036d888289016102ef565b9150509295509295909350565b610383816102c8565b82525050565b5f60208201905061039c5f83018461037a565b92915050565b60805160a051613b1e6103ce5f395f8181610f1701528181610f78015261151201525f5050613b1e5ff3fe608060405234801561000f575f5ffd5b50600436106101c2575f3560e01c806379c65068116100f7578063b20bcb8511610095578063d012a5a81161006f578063d012a5a814610538578063d5e5f12e14610556578063e581270414610586578063f2fde38b146105b6576101c2565b8063b20bcb85146104bc578063c96f7f57146104d8578063cdf2007314610508576101c2565b80639eb0e965116100d15780639eb0e96514610432578063a089f2b614610450578063ae7fde521461046c578063b169e5581461048c576101c2565b806379c65068146103c25780638da5cb5b146103de57806399a2814e146103fc576101c2565b80635038c2db11610164578063688db6671161013e578063688db6671461035e578063715018a61461037c578063753acfc81461038657806375d0c0dc146103a4576101c2565b80635038c2db146102e057806350d9d4c5146103105780635b50d86114610340576101c2565b806319e34956116101a057806319e34956146102345780631aceb7c5146102645780633861a97d1461029457806343db3160146102c4576101c2565b80630787dd6a146101c65780630b8f2ddc146101e257806310ff8e3114610200575b5f5ffd5b6101e060048036038101906101db9190611be9565b6105d2565b005b6101ea61065c565b6040516101f79190611c8e565b60405180910390f35b61021a60048036038101906102159190611ca7565b610681565b60405161022b959493929190611d9d565b60405180910390f35b61024e60048036038101906102499190611e1f565b6109e9565b60405161025b9190611e96565b60405180910390f35b61027e60048036038101906102799190611f6a565b610a9b565b60405161028b91906121b2565b60405180910390f35b6102ae60048036038101906102a99190611ca7565b610b46565b6040516102bb9190612279565b60405180910390f35b6102de60048036038101906102d99190611f6a565b610bf1565b005b6102fa60048036038101906102f591906122c3565b610c7b565b6040516103079190612310565b60405180910390f35b61032a60048036038101906103259190611ca7565b610d22565b60405161033791906124bb565b60405180910390f35b610348610dc7565b6040516103559190612704565b60405180910390f35b610366610e5f565b6040516103739190612873565b60405180910390f35b610384610f02565b005b61038e610f15565b60405161039b91906128b3565b60405180910390f35b6103ac610f39565b6040516103b99190611e96565b60405180910390f35b6103dc60048036038101906103d791906128cc565b610f76565b005b6103e6611002565b6040516103f3919061290a565b60405180910390f35b61041660048036038101906104119190611ca7565b611029565b6040516104299796959493929190612923565b60405180910390f35b61043a61110d565b60405161044791906129c5565b60405180910390f35b61046a60048036038101906104659190611f6a565b611132565b005b6104746111bc565b604051610483939291906129de565b60405180910390f35b6104a660048036038101906104a19190612a28565b611260565b6040516104b39190612873565b60405180910390f35b6104d660048036038101906104d19190611ca7565b611307565b005b6104f260048036038101906104ed9190611ca7565b611391565b6040516104ff9190612ad9565b60405180910390f35b610522600480360381019061051d9190611ca7565b61143c565b60405161052f9190612b8d565b60405180910390f35b6105406114e9565b60405161054d9190612bcd565b60405180910390f35b610570600480360381019061056b9190612be6565b61150e565b60405161057d9190612310565b60405180910390f35b6105a0600480360381019061059b9190612c8a565b6116bb565b6040516105ad9190612310565b60405180910390f35b6105d060048036038101906105cb9190612a28565b611762565b005b60025f9054906101000a900473ffffffffffffffffffffffffffffffffffffffff1673ffffffffffffffffffffffffffffffffffffffff16630787dd6a826040518263ffffffff1660e01b815260040161062c9190612ce4565b5f604051808303815f87803b158015610643575f5ffd5b505af1158015610655573d5f5f3e3d5ffd5b5050505050565b60015f9054906101000a900473ffffffffffffffffffffffffffffffffffffffff1681565b5f606061068c611935565b5f606060015f9054906101000a900473ffffffffffffffffffffffffffffffffffffffff1673ffffffffffffffffffffffffffffffffffffffff16639526b816876040518263ffffffff1660e01b81526004016106e99190612cfd565b5f60405180830381865afa92505050801561072657506040513d5f823e3d601f19601f820116820180604052508101906107239190612fcc565b60015b6109bc575f8690505f60015f9054906101000a900473ffffffffffffffffffffffffffffffffffffffff1673ffffffffffffffffffffffffffffffffffffffff166344eb58ac896040518263ffffffff1660e01b81526004016107899190612cfd565b5f60405180830381865afa1580156107a3573d5f5f3e3d5ffd5b505050506040513d5f823e3d601f19601f820116820180604052508101906107cb9190613013565b90505f60015f9054906101000a900473ffffffffffffffffffffffffffffffffffffffff1673ffffffffffffffffffffffffffffffffffffffff166392adc9df8a6040518263ffffffff1660e01b81526004016108289190612cfd565b6040805180830381865afa158015610842573d5f5f3e3d5ffd5b505050506040513d601f19601f82011682018060405250810190610866919061305a565b90505f60015f9054906101000a900473ffffffffffffffffffffffffffffffffffffffff1673ffffffffffffffffffffffffffffffffffffffff166374a1bd988b6040518263ffffffff1660e01b81526004016108c39190612cfd565b602060405180830381865afa1580156108de573d5f5f3e3d5ffd5b505050506040513d601f19601f820116820180604052508101906109029190613085565b90505f60015f9054906101000a900473ffffffffffffffffffffffffffffffffffffffff1673ffffffffffffffffffffffffffffffffffffffff16636944e6138c6040518263ffffffff1660e01b815260040161095f9190612cfd565b5f60405180830381865afa158015610979573d5f5f3e3d5ffd5b505050506040513d5f823e3d601f19601f820116820180604052508101906109a19190613013565b905084848484849950995099509950995050505050506109e0565b805f01518160200151826040015183608001518460a0015195509550955095509550505b91939590929450565b606060035f9054906101000a900473ffffffffffffffffffffffffffffffffffffffff1673ffffffffffffffffffffffffffffffffffffffff166319e3495687878787876040518663ffffffff1660e01b8152600401610a4d9594939291906130bf565b5f604051808303815f875af1158015610a68573d5f5f3e3d5ffd5b505050506040513d5f823e3d601f19601f82011682018060405250810190610a909190613013565b905095945050505050565b610aa361194d565b60035f9054906101000a900473ffffffffffffffffffffffffffffffffffffffff1673ffffffffffffffffffffffffffffffffffffffff16631aceb7c5836040518263ffffffff1660e01b8152600401610afd9190611e96565b5f60405180830381865afa158015610b17573d5f5f3e3d5ffd5b505050506040513d5f823e3d601f19601f82011682018060405250810190610b3f9190613280565b9050919050565b610b4e6119d3565b60015f9054906101000a900473ffffffffffffffffffffffffffffffffffffffff1673ffffffffffffffffffffffffffffffffffffffff16633861a97d836040518263ffffffff1660e01b8152600401610ba89190612cfd565b5f60405180830381865afa158015610bc2573d5f5f3e3d5ffd5b505050506040513d5f823e3d601f19601f82011682018060405250810190610bea91906133cc565b9050919050565b60035f9054906101000a900473ffffffffffffffffffffffffffffffffffffffff1673ffffffffffffffffffffffffffffffffffffffff166343db3160826040518263ffffffff1660e01b8152600401610c4b9190611e96565b5f604051808303815f87803b158015610c62575f5ffd5b505af1158015610c74573d5f5f3e3d5ffd5b5050505050565b5f60015f9054906101000a900473ffffffffffffffffffffffffffffffffffffffff1673ffffffffffffffffffffffffffffffffffffffff16633cffd3208484336040518463ffffffff1660e01b8152600401610cda93929190613413565b6020604051808303815f875af1158015610cf6573d5f5f3e3d5ffd5b505050506040513d601f19601f82011682018060405250810190610d1a9190613448565b905092915050565b606060035f9054906101000a900473ffffffffffffffffffffffffffffffffffffffff1673ffffffffffffffffffffffffffffffffffffffff166350d9d4c5836040518263ffffffff1660e01b8152600401610d7e9190612cfd565b5f60405180830381865afa158015610d98573d5f5f3e3d5ffd5b505050506040513d5f823e3d601f19601f82011682018060405250810190610dc09190613551565b9050919050565b606060025f9054906101000a900473ffffffffffffffffffffffffffffffffffffffff1673ffffffffffffffffffffffffffffffffffffffff16635b50d8616040518163ffffffff1660e01b81526004015f60405180830381865afa158015610e32573d5f5f3e3d5ffd5b505050506040513d5f823e3d601f19601f82011682018060405250810190610e5a919061372f565b905090565b606060015f9054906101000a900473ffffffffffffffffffffffffffffffffffffffff1673ffffffffffffffffffffffffffffffffffffffff166305f39532336040518263ffffffff1660e01b8152600401610ebb919061290a565b5f60405180830381865afa158015610ed5573d5f5f3e3d5ffd5b505050506040513d5f823e3d601f19601f82011682018060405250810190610efd9190613854565b905090565b610f0a6117e6565b610f135f61186d565b565b7f000000000000000000000000000000000000000000000000000000000000000081565b60606040518060400160405280600d81526020017f4661726d4b65657065722d763100000000000000000000000000000000000000815250905090565b7f000000000000000000000000000000000000000000000000000000000000000073ffffffffffffffffffffffffffffffffffffffff166340c10f1983836040518363ffffffff1660e01b8152600401610fd192919061389b565b5f604051808303815f87803b158015610fe8575f5ffd5b505af1158015610ffa573d5f5f3e3d5ffd5b505050505050565b5f5f5f9054906101000a900473ffffffffffffffffffffffffffffffffffffffff16905090565b5f60605f6060805f5f5f60015f9054906101000a900473ffffffffffffffffffffffffffffffffffffffff1673ffffffffffffffffffffffffffffffffffffffff16633861a97d8a6040518263ffffffff1660e01b815260040161108d9190612cfd565b5f60405180830381865afa1580156110a7573d5f5f3e3d5ffd5b505050506040513d5f823e3d601f19601f820116820180604052508101906110cf91906133cc565b9050805f015181602001518260400151836060015184608001518560a001518660c00151975097509750975097509750975050919395979092949650565b60025f9054906101000a900473ffffffffffffffffffffffffffffffffffffffff1681565b60035f9054906101000a900473ffffffffffffffffffffffffffffffffffffffff1673ffffffffffffffffffffffffffffffffffffffff1663a089f2b6826040518263ffffffff1660e01b815260040161118c9190611e96565b5f604051808303815f87803b1580156111a3575f5ffd5b505af11580156111b5573d5f5f3e3d5ffd5b5050505050565b60608060605f6040518060400160405280601081526020017f417574686f723a204c696e6757616e670000000000000000000000000000000081525090505f6040518060400160405280601b81526020017f456d61696c3a206c696e677763796f766f40676d61696c2e636f6d000000000081525090505f604051806060016040528060278152602001613ac2602791399050828282955095509550505050909192565b606060015f9054906101000a900473ffffffffffffffffffffffffffffffffffffffff1673ffffffffffffffffffffffffffffffffffffffff16636699763a83336040518363ffffffff1660e01b81526004016112be9291906138c2565b5f60405180830381865afa1580156112d8573d5f5f3e3d5ffd5b505050506040513d5f823e3d601f19601f820116820180604052508101906113009190613854565b9050919050565b60025f9054906101000a900473ffffffffffffffffffffffffffffffffffffffff1673ffffffffffffffffffffffffffffffffffffffff1663b20bcb85826040518263ffffffff1660e01b81526004016113619190612cfd565b5f604051808303815f87803b158015611378575f5ffd5b505af115801561138a573d5f5f3e3d5ffd5b5050505050565b611399611a26565b60025f9054906101000a900473ffffffffffffffffffffffffffffffffffffffff1673ffffffffffffffffffffffffffffffffffffffff1663c96f7f57836040518263ffffffff1660e01b81526004016113f39190612cfd565b5f60405180830381865afa15801561140d573d5f5f3e3d5ffd5b505050506040513d5f823e3d601f19601f8201168201806040525081019061143591906138e9565b9050919050565b611444611a78565b60015f9054906101000a900473ffffffffffffffffffffffffffffffffffffffff1673ffffffffffffffffffffffffffffffffffffffff1663c0e1b66e83336040518363ffffffff1660e01b81526004016114a0929190613930565b5f60405180830381865afa1580156114ba573d5f5f3e3d5ffd5b505050506040513d5f823e3d601f19601f820116820180604052508101906114e29190612fcc565b9050919050565b60035f9054906101000a900473ffffffffffffffffffffffffffffffffffffffff1681565b5f5f7f000000000000000000000000000000000000000000000000000000000000000073ffffffffffffffffffffffffffffffffffffffff166323b872dd3360015f9054906101000a900473ffffffffffffffffffffffffffffffffffffffff1660646040518463ffffffff1660e01b815260040161158f93929190613990565b6020604051808303815f875af11580156115ab573d5f5f3e3d5ffd5b505050506040513d601f19601f820116820180604052508101906115cf9190613448565b905080611611576040517f08c379a000000000000000000000000000000000000000000000000000000000815260040161160890613a0f565b60405180910390fd5b60015f9054906101000a900473ffffffffffffffffffffffffffffffffffffffff1673ffffffffffffffffffffffffffffffffffffffff1663d14fe0fb868686336040518563ffffffff1660e01b81526004016116719493929190613a2d565b6020604051808303815f875af115801561168d573d5f5f3e3d5ffd5b505050506040513d601f19601f820116820180604052508101906116b19190613448565b9150509392505050565b5f60015f9054906101000a900473ffffffffffffffffffffffffffffffffffffffff1673ffffffffffffffffffffffffffffffffffffffff1663509dfc758484336040518463ffffffff1660e01b815260040161171a93929190613a85565b6020604051808303815f875af1158015611736573d5f5f3e3d5ffd5b505050506040513d601f19601f8201168201806040525081019061175a9190613448565b905092915050565b61176a6117e6565b5f73ffffffffffffffffffffffffffffffffffffffff168173ffffffffffffffffffffffffffffffffffffffff16036117da575f6040517f1e4fbdf70000000000000000000000000000000000000000000000000000000081526004016117d1919061290a565b60405180910390fd5b6117e38161186d565b50565b6117ee61192e565b73ffffffffffffffffffffffffffffffffffffffff1661180c611002565b73ffffffffffffffffffffffffffffffffffffffff161461186b5761182f61192e565b6040517f118cdaa7000000000000000000000000000000000000000000000000000000008152600401611862919061290a565b60405180910390fd5b565b5f5f5f9054906101000a900473ffffffffffffffffffffffffffffffffffffffff169050815f5f6101000a81548173ffffffffffffffffffffffffffffffffffffffff021916908373ffffffffffffffffffffffffffffffffffffffff1602179055508173ffffffffffffffffffffffffffffffffffffffff168173ffffffffffffffffffffffffffffffffffffffff167f8be0079c531659141344cd1fd0a4f28419497f9722a3daafe3b4186f6b6457e060405160405180910390a35050565b5f33905090565b60405180604001604052805f81526020015f81525090565b604051806101400160405280606081526020015f81526020015f81526020015f600181111561197f5761197e611ff9565b5b81526020015f73ffffffffffffffffffffffffffffffffffffffff1681526020015f81526020015f81526020015f81526020015f151581526020015f60048111156119cd576119cc611ff9565b5b81525090565b6040518060e001604052805f8152602001606081526020015f73ffffffffffffffffffffffffffffffffffffffff16815260200160608152602001606081526020015f151581526020015f151581525090565b6040518060c001604052805f81526020015f73ffffffffffffffffffffffffffffffffffffffff168152602001611a5b611935565b81526020015f15158152602001606081526020015f151581525090565b6040518060c001604052805f815260200160608152602001611a98611935565b8152602001606081526020015f73ffffffffffffffffffffffffffffffffffffffff168152602001606081525090565b5f604051905090565b5f5ffd5b5f5ffd5b5f5ffd5b5f601f19601f8301169050919050565b7f4e487b71000000000000000000000000000000000000000000000000000000005f52604160045260245ffd5b611b2382611add565b810181811067ffffffffffffffff82111715611b4257611b41611aed565b5b80604052505050565b5f611b54611ac8565b9050611b608282611b1a565b919050565b5f5ffd5b5f819050919050565b611b7b81611b69565b8114611b85575f5ffd5b50565b5f81359050611b9681611b72565b92915050565b5f60408284031215611bb157611bb0611ad9565b5b611bbb6040611b4b565b90505f611bca84828501611b88565b5f830152506020611bdd84828501611b88565b60208301525092915050565b5f60408284031215611bfe57611bfd611ad1565b5b5f611c0b84828501611b9c565b91505092915050565b5f73ffffffffffffffffffffffffffffffffffffffff82169050919050565b5f819050919050565b5f611c56611c51611c4c84611c14565b611c33565b611c14565b9050919050565b5f611c6782611c3c565b9050919050565b5f611c7882611c5d565b9050919050565b611c8881611c6e565b82525050565b5f602082019050611ca15f830184611c7f565b92915050565b5f60208284031215611cbc57611cbb611ad1565b5b5f611cc984828501611b88565b91505092915050565b611cdb81611b69565b82525050565b5f81519050919050565b5f82825260208201905092915050565b8281835e5f83830152505050565b5f611d1382611ce1565b611d1d8185611ceb565b9350611d2d818560208601611cfb565b611d3681611add565b840191505092915050565b611d4a81611b69565b82525050565b604082015f820151611d645f850182611d41565b506020820151611d776020850182611d41565b50505050565b5f611d8782611c14565b9050919050565b611d9781611d7d565b82525050565b5f60c082019050611db05f830188611cd2565b8181036020830152611dc28187611d09565b9050611dd16040830186611d50565b611dde6080830185611d8e565b81810360a0830152611df08184611d09565b90509695505050505050565b60028110611e08575f5ffd5b50565b5f81359050611e1981611dfc565b92915050565b5f5f5f5f5f60a08688031215611e3857611e37611ad1565b5b5f611e4588828901611b88565b9550506020611e5688828901611b88565b9450506040611e6788828901611e0b565b9350506060611e7888828901611b88565b9250506080611e8988828901611b88565b9150509295509295909350565b5f6020820190508181035f830152611eae8184611d09565b905092915050565b5f5ffd5b5f5ffd5b5f67ffffffffffffffff821115611ed857611ed7611aed565b5b611ee182611add565b9050602081019050919050565b828183375f83830152505050565b5f611f0e611f0984611ebe565b611b4b565b905082815260208101848484011115611f2a57611f29611eba565b5b611f35848285611eee565b509392505050565b5f82601f830112611f5157611f50611eb6565b5b8135611f61848260208601611efc565b91505092915050565b5f60208284031215611f7f57611f7e611ad1565b5b5f82013567ffffffffffffffff811115611f9c57611f9b611ad5565b5b611fa884828501611f3d565b91505092915050565b5f82825260208201905092915050565b5f611fcb82611ce1565b611fd58185611fb1565b9350611fe5818560208601611cfb565b611fee81611add565b840191505092915050565b7f4e487b71000000000000000000000000000000000000000000000000000000005f52602160045260245ffd5b6002811061203757612036611ff9565b5b50565b5f81905061204782612026565b919050565b5f6120568261203a565b9050919050565b6120668161204c565b82525050565b61207581611d7d565b82525050565b5f8115159050919050565b61208f8161207b565b82525050565b600581106120a6576120a5611ff9565b5b50565b5f8190506120b682612095565b919050565b5f6120c5826120a9565b9050919050565b6120d5816120bb565b82525050565b5f61014083015f8301518482035f8601526120f68282611fc1565b915050602083015161210b6020860182611d41565b50604083015161211e6040860182611d41565b506060830151612131606086018261205d565b506080830151612144608086018261206c565b5060a083015161215760a0860182611d41565b5060c083015161216a60c0860182611d41565b5060e083015161217d60e0860182611d41565b50610100830151612192610100860182612086565b506101208301516121a76101208601826120cc565b508091505092915050565b5f6020820190508181035f8301526121ca81846120db565b905092915050565b5f60e083015f8301516121e75f860182611d41565b50602083015184820360208601526121ff8282611fc1565b9150506040830151612214604086018261206c565b506060830151848203606086015261222c8282611fc1565b915050608083015184820360808601526122468282611fc1565b91505060a083015161225b60a0860182612086565b5060c083015161226e60c0860182612086565b508091505092915050565b5f6020820190508181035f83015261229181846121d2565b905092915050565b6122a281611d7d565b81146122ac575f5ffd5b50565b5f813590506122bd81612299565b92915050565b5f5f604083850312156122d9576122d8611ad1565b5b5f6122e685828601611b88565b92505060206122f7858286016122af565b9150509250929050565b61230a8161207b565b82525050565b5f6020820190506123235f830184612301565b92915050565b5f81519050919050565b5f82825260208201905092915050565b5f819050602082019050919050565b5f61014083015f8301518482035f86015261236d8282611fc1565b91505060208301516123826020860182611d41565b5060408301516123956040860182611d41565b5060608301516123a8606086018261205d565b5060808301516123bb608086018261206c565b5060a08301516123ce60a0860182611d41565b5060c08301516123e160c0860182611d41565b5060e08301516123f460e0860182611d41565b50610100830151612409610100860182612086565b5061012083015161241e6101208601826120cc565b508091505092915050565b5f6124348383612352565b905092915050565b5f602082019050919050565b5f61245282612329565b61245c8185612333565b93508360208202850161246e85612343565b805f5b858110156124a9578484038952815161248a8582612429565b94506124958361243c565b925060208a01995050600181019050612471565b50829750879550505050505092915050565b5f6020820190508181035f8301526124d38184612448565b905092915050565b5f81519050919050565b5f82825260208201905092915050565b5f819050602082019050919050565b604082015f8201516125185f850182611d41565b50602082015161252b6020850182611d41565b50505050565b5f81519050919050565b5f82825260208201905092915050565b5f819050602082019050919050565b5f6125658383611fc1565b905092915050565b5f602082019050919050565b5f61258382612531565b61258d818561253b565b93508360208202850161259f8561254b565b805f5b858110156125da57848403895281516125bb858261255a565b94506125c68361256d565b925060208a019950506001810190506125a2565b50829750879550505050505092915050565b5f60e083015f8301516126015f860182611d41565b506020830151612614602086018261206c565b5060408301516126276040860182612504565b50606083015161263a6080860182612086565b50608083015184820360a08601526126528282612579565b91505060a083015161266760c0860182612086565b508091505092915050565b5f61267d83836125ec565b905092915050565b5f602082019050919050565b5f61269b826124db565b6126a581856124e5565b9350836020820285016126b7856124f5565b805f5b858110156126f257848403895281516126d38582612672565b94506126de83612685565b925060208a019950506001810190506126ba565b50829750879550505050505092915050565b5f6020820190508181035f83015261271c8184612691565b905092915050565b5f81519050919050565b5f82825260208201905092915050565b5f819050602082019050919050565b5f60e083015f8301516127625f860182611d41565b506020830151848203602086015261277a8282611fc1565b915050604083015161278f6040860182612504565b50606083015184820360808601526127a78282612579565b91505060808301516127bc60a086018261206c565b5060a083015184820360c08601526127d48282611fc1565b9150508091505092915050565b5f6127ec838361274d565b905092915050565b5f602082019050919050565b5f61280a82612724565b612814818561272e565b9350836020820285016128268561273e565b805f5b85811015612861578484038952815161284285826127e1565b945061284d836127f4565b925060208a01995050600181019050612829565b50829750879550505050505092915050565b5f6020820190508181035f83015261288b8184612800565b905092915050565b5f61289d82611c5d565b9050919050565b6128ad81612893565b82525050565b5f6020820190506128c65f8301846128a4565b92915050565b5f5f604083850312156128e2576128e1611ad1565b5b5f6128ef858286016122af565b925050602061290085828601611b88565b9150509250929050565b5f60208201905061291d5f830184611d8e565b92915050565b5f60e0820190506129365f83018a611cd2565b81810360208301526129488189611d09565b90506129576040830188611d8e565b81810360608301526129698187611d09565b9050818103608083015261297d8186611d09565b905061298c60a0830185612301565b61299960c0830184612301565b98975050505050505050565b5f6129af82611c5d565b9050919050565b6129bf816129a5565b82525050565b5f6020820190506129d85f8301846129b6565b92915050565b5f6060820190508181035f8301526129f68186611d09565b90508181036020830152612a0a8185611d09565b90508181036040830152612a1e8184611d09565b9050949350505050565b5f60208284031215612a3d57612a3c611ad1565b5b5f612a4a848285016122af565b91505092915050565b5f60e083015f830151612a685f860182611d41565b506020830151612a7b602086018261206c565b506040830151612a8e6040860182612504565b506060830151612aa16080860182612086565b50608083015184820360a0860152612ab98282612579565b91505060a0830151612ace60c0860182612086565b508091505092915050565b5f6020820190508181035f830152612af18184612a53565b905092915050565b5f60e083015f830151612b0e5f860182611d41565b5060208301518482036020860152612b268282611fc1565b9150506040830151612b3b6040860182612504565b5060608301518482036080860152612b538282612579565b9150506080830151612b6860a086018261206c565b5060a083015184820360c0860152612b808282611fc1565b9150508091505092915050565b5f6020820190508181035f830152612ba58184612af9565b905092915050565b5f612bb782611c5d565b9050919050565b612bc781612bad565b82525050565b5f602082019050612be05f830184612bbe565b92915050565b5f5f5f60608486031215612bfd57612bfc611ad1565b5b5f84013567ffffffffffffffff811115612c1a57612c19611ad5565b5b612c2686828701611f3d565b935050602084013567ffffffffffffffff811115612c4757612c46611ad5565b5b612c5386828701611f3d565b925050604084013567ffffffffffffffff811115612c7457612c73611ad5565b5b612c8086828701611f3d565b9150509250925092565b5f5f60408385031215612ca057612c9f611ad1565b5b5f612cad85828601611b88565b925050602083013567ffffffffffffffff811115612cce57612ccd611ad5565b5b612cda85828601611f3d565b9150509250929050565b5f604082019050612cf75f830184611d50565b92915050565b5f602082019050612d105f830184611cd2565b92915050565b5f81519050612d2481611b72565b92915050565b5f612d3c612d3784611ebe565b611b4b565b905082815260208101848484011115612d5857612d57611eba565b5b612d63848285611cfb565b509392505050565b5f82601f830112612d7f57612d7e611eb6565b5b8151612d8f848260208601612d2a565b91505092915050565b5f60408284031215612dad57612dac611ad9565b5b612db76040611b4b565b90505f612dc684828501612d16565b5f830152506020612dd984828501612d16565b60208301525092915050565b5f67ffffffffffffffff821115612dff57612dfe611aed565b5b602082029050602081019050919050565b5f5ffd5b5f612e26612e2184612de5565b611b4b565b90508083825260208201905060208402830185811115612e4957612e48612e10565b5b835b81811015612e9057805167ffffffffffffffff811115612e6e57612e6d611eb6565b5b808601612e7b8982612d6b565b85526020850194505050602081019050612e4b565b5050509392505050565b5f82601f830112612eae57612ead611eb6565b5b8151612ebe848260208601612e14565b91505092915050565b5f81519050612ed581612299565b92915050565b5f60e08284031215612ef057612eef611ad9565b5b612efa60c0611b4b565b90505f612f0984828501612d16565b5f83015250602082015167ffffffffffffffff811115612f2c57612f2b611b65565b5b612f3884828501612d6b565b6020830152506040612f4c84828501612d98565b604083015250608082015167ffffffffffffffff811115612f7057612f6f611b65565b5b612f7c84828501612e9a565b60608301525060a0612f9084828501612ec7565b60808301525060c082015167ffffffffffffffff811115612fb457612fb3611b65565b5b612fc084828501612d6b565b60a08301525092915050565b5f60208284031215612fe157612fe0611ad1565b5b5f82015167ffffffffffffffff811115612ffe57612ffd611ad5565b5b61300a84828501612edb565b91505092915050565b5f6020828403121561302857613027611ad1565b5b5f82015167ffffffffffffffff81111561304557613044611ad5565b5b61305184828501612d6b565b91505092915050565b5f6040828403121561306f5761306e611ad1565b5b5f61307c84828501612d98565b91505092915050565b5f6020828403121561309a57613099611ad1565b5b5f6130a784828501612ec7565b91505092915050565b6130b98161204c565b82525050565b5f60a0820190506130d25f830188611cd2565b6130df6020830187611cd2565b6130ec60408301866130b0565b6130f96060830185611cd2565b6131066080830184611cd2565b9695505050505050565b5f8151905061311e81611dfc565b92915050565b61312d8161207b565b8114613137575f5ffd5b50565b5f8151905061314881613124565b92915050565b6005811061315a575f5ffd5b50565b5f8151905061316b8161314e565b92915050565b5f610140828403121561318757613186611ad9565b5b613192610140611b4b565b90505f82015167ffffffffffffffff8111156131b1576131b0611b65565b5b6131bd84828501612d6b565b5f8301525060206131d084828501612d16565b60208301525060406131e484828501612d16565b60408301525060606131f884828501613110565b606083015250608061320c84828501612ec7565b60808301525060a061322084828501612d16565b60a08301525060c061323484828501612d16565b60c08301525060e061324884828501612d16565b60e08301525061010061325d8482850161313a565b610100830152506101206132738482850161315d565b6101208301525092915050565b5f6020828403121561329557613294611ad1565b5b5f82015167ffffffffffffffff8111156132b2576132b1611ad5565b5b6132be84828501613171565b91505092915050565b5f60e082840312156132dc576132db611ad9565b5b6132e660e0611b4b565b90505f6132f584828501612d16565b5f83015250602082015167ffffffffffffffff81111561331857613317611b65565b5b61332484828501612d6b565b602083015250604061333884828501612ec7565b604083015250606082015167ffffffffffffffff81111561335c5761335b611b65565b5b61336884828501612d6b565b606083015250608082015167ffffffffffffffff81111561338c5761338b611b65565b5b61339884828501612d6b565b60808301525060a06133ac8482850161313a565b60a08301525060c06133c08482850161313a565b60c08301525092915050565b5f602082840312156133e1576133e0611ad1565b5b5f82015167ffffffffffffffff8111156133fe576133fd611ad5565b5b61340a848285016132c7565b91505092915050565b5f6060820190506134265f830186611cd2565b6134336020830185611d8e565b6134406040830184611d8e565b949350505050565b5f6020828403121561345d5761345c611ad1565b5b5f61346a8482850161313a565b91505092915050565b5f67ffffffffffffffff82111561348d5761348c611aed565b5b602082029050602081019050919050565b5f6134b06134ab84613473565b611b4b565b905080838252602082019050602084028301858111156134d3576134d2612e10565b5b835b8181101561351a57805167ffffffffffffffff8111156134f8576134f7611eb6565b5b8086016135058982613171565b855260208501945050506020810190506134d5565b5050509392505050565b5f82601f83011261353857613537611eb6565b5b815161354884826020860161349e565b91505092915050565b5f6020828403121561356657613565611ad1565b5b5f82015167ffffffffffffffff81111561358357613582611ad5565b5b61358f84828501613524565b91505092915050565b5f67ffffffffffffffff8211156135b2576135b1611aed565b5b602082029050602081019050919050565b5f60e082840312156135d8576135d7611ad9565b5b6135e260c0611b4b565b90505f6135f184828501612d16565b5f83015250602061360484828501612ec7565b602083015250604061361884828501612d98565b604083015250608061362c8482850161313a565b60608301525060a082015167ffffffffffffffff8111156136505761364f611b65565b5b61365c84828501612e9a565b60808301525060c06136708482850161313a565b60a08301525092915050565b5f61368e61368984613598565b611b4b565b905080838252602082019050602084028301858111156136b1576136b0612e10565b5b835b818110156136f857805167ffffffffffffffff8111156136d6576136d5611eb6565b5b8086016136e389826135c3565b855260208501945050506020810190506136b3565b5050509392505050565b5f82601f83011261371657613715611eb6565b5b815161372684826020860161367c565b91505092915050565b5f6020828403121561374457613743611ad1565b5b5f82015167ffffffffffffffff81111561376157613760611ad5565b5b61376d84828501613702565b91505092915050565b5f67ffffffffffffffff8211156137905761378f611aed565b5b602082029050602081019050919050565b5f6137b36137ae84613776565b611b4b565b905080838252602082019050602084028301858111156137d6576137d5612e10565b5b835b8181101561381d57805167ffffffffffffffff8111156137fb576137fa611eb6565b5b8086016138088982612edb565b855260208501945050506020810190506137d8565b5050509392505050565b5f82601f83011261383b5761383a611eb6565b5b815161384b8482602086016137a1565b91505092915050565b5f6020828403121561386957613868611ad1565b5b5f82015167ffffffffffffffff81111561388657613885611ad5565b5b61389284828501613827565b91505092915050565b5f6040820190506138ae5f830185611d8e565b6138bb6020830184611cd2565b9392505050565b5f6040820190506138d55f830185611d8e565b6138e26020830184611d8e565b9392505050565b5f602082840312156138fe576138fd611ad1565b5b5f82015167ffffffffffffffff81111561391b5761391a611ad5565b5b613927848285016135c3565b91505092915050565b5f6040820190506139435f830185611cd2565b6139506020830184611d8e565b9392505050565b5f819050919050565b5f61397a61397561397084613957565b611c33565b611b69565b9050919050565b61398a81613960565b82525050565b5f6060820190506139a35f830186611d8e565b6139b06020830185611d8e565b6139bd6040830184613981565b949350505050565b7f5472616e73666572206661696c656400000000000000000000000000000000005f82015250565b5f6139f9600f83611ceb565b9150613a04826139c5565b602082019050919050565b5f6020820190508181035f830152613a26816139ed565b9050919050565b5f6080820190508181035f830152613a458187611d09565b90508181036020830152613a598186611d09565b90508181036040830152613a6d8185611d09565b9050613a7c6060830184611d8e565b95945050505050565b5f606082019050613a985f830186611cd2565b8181036020830152613aaa8185611d09565b9050613ab96040830184611d8e565b94935050505056fe496e737469747574696f6e3a20536f75746857657374204d696e7a7520556e6976657273697479a2646970667358221220ba917781ceb0ff64bf8a0d5f3d29ec7d8bf0ec480c5dc1285c556ce97f9088ca64736f6c634300081c0033","linkReferences":{}},"methodIdentifiers":{"FKTToken()":"753acfc8","addFarm((uint256,uint256))":"0787dd6a","addInsurance(uint256,uint256,uint8,uint256,uint256)":"19e34956","assignDeviceToUser(uint256,address)":"5038c2db","cancelInsurance(string)":"43db3160","contractName()":"75d0c0dc","createMintDeviceOrder(string,string,string)":"d5e5f12e","deleteUserFarm(uint256)":"b20bcb85","deviceContract()":"0b8f2ddc","devices(uint256)":"10ff8e31","farmContract()":"9eb0e965","getAuthorInformation()":"ae7fde52","getDeviceById(uint256)":"cdf20073","getFarmInsurances(uint256)":"50d9d4c5","getInsuranceById(string)":"1aceb7c5","getMintDeviceOrder(uint256)":"3861a97d","getUserDevices()":"688db667","getUserDevicesByAddress(address)":"b169e558","getUserFarmById(uint256)":"c96f7f57","getUserFarms()":"5b50d861","insuranceContract()":"d012a5a8","mintDevice(uint256,string)":"e5812704","mintDeviceOrders(uint256)":"99a2814e","mintToken(address,uint256)":"79c65068","owner()":"8da5cb5b","payOutInsurance(string)":"a089f2b6","renounceOwnership()":"715018a6","transferOwnership(address)":"f2fde38b"},"id":39}